{
  "_format": "hh-sol-artifact-1",
  "contractName": "Transactions",
  "sourceName": "contracts/Transactions.sol",
  "abi": [
    {
      "anonymous": false,
      "inputs": [
        {
          "indexed": false,
          "internalType": "address",
          "name": "from",
          "type": "address"
        },
        {
          "indexed": false,
          "internalType": "address",
          "name": "reciever",
          "type": "address"
        },
        {
          "indexed": false,
          "internalType": "uint256",
          "name": "amount",
          "type": "uint256"
        },
        {
          "indexed": false,
          "internalType": "string",
          "name": "message",
          "type": "string"
        },
        {
          "indexed": false,
          "internalType": "uint256",
          "name": "timestamp",
          "type": "uint256"
        },
        {
          "indexed": false,
          "internalType": "string",
          "name": "keyword",
          "type": "string"
        }
      ],
      "name": "Transfer",
      "type": "event"
    },
    {
      "inputs": [
        {
          "internalType": "address payable",
          "name": "recipient",
          "type": "address"
        },
        {
          "internalType": "string",
          "name": "contact_name",
          "type": "string"
        }
      ],
      "name": "addContact",
      "outputs": [],
      "stateMutability": "nonpayable",
      "type": "function"
    },
    {
      "inputs": [
        {
          "internalType": "address payable",
          "name": "reciever",
          "type": "address"
        },
        {
          "internalType": "uint256",
          "name": "amount",
          "type": "uint256"
        },
        {
          "internalType": "string",
          "name": "message",
          "type": "string"
        },
        {
          "internalType": "string",
          "name": "keyword",
          "type": "string"
        },
        {
          "internalType": "string",
          "name": "token",
          "type": "string"
        }
      ],
      "name": "addToBlockchain",
      "outputs": [],
      "stateMutability": "nonpayable",
      "type": "function"
    },
    {
      "inputs": [],
      "name": "getAllContacts",
      "outputs": [
        {
          "components": [
            {
              "internalType": "string",
              "name": "name",
              "type": "string"
            },
            {
              "internalType": "address payable",
              "name": "contactAddress",
              "type": "address"
            }
          ],
          "internalType": "struct Transactions.Contact[]",
          "name": "",
          "type": "tuple[]"
        }
      ],
      "stateMutability": "view",
      "type": "function"
    },
    {
      "inputs": [],
      "name": "getAllTransactions",
      "outputs": [
        {
          "components": [
            {
              "internalType": "address",
              "name": "sender",
              "type": "address"
            },
            {
              "internalType": "address",
              "name": "reciever",
              "type": "address"
            },
            {
              "internalType": "uint256",
              "name": "amount",
              "type": "uint256"
            },
            {
              "internalType": "string",
              "name": "message",
              "type": "string"
            },
            {
              "internalType": "uint256",
              "name": "timestamp",
              "type": "uint256"
            },
            {
              "internalType": "string",
              "name": "keyword",
              "type": "string"
            },
            {
              "internalType": "string",
              "name": "token",
              "type": "string"
            }
          ],
          "internalType": "struct Transactions.TransferStruct[]",
          "name": "",
          "type": "tuple[]"
        }
      ],
      "stateMutability": "view",
      "type": "function"
    },
    {
      "inputs": [
        {
          "internalType": "address",
          "name": "person",
          "type": "address"
        }
      ],
      "name": "getPin",
      "outputs": [
        {
          "internalType": "uint256",
          "name": "",
          "type": "uint256"
        }
      ],
      "stateMutability": "view",
      "type": "function"
    },
    {
      "inputs": [],
      "name": "getTransactionCount",
      "outputs": [
        {
          "internalType": "uint256",
          "name": "",
          "type": "uint256"
        }
      ],
      "stateMutability": "view",
      "type": "function"
    },
    {
      "inputs": [
        {
          "internalType": "uint256",
          "name": "number",
          "type": "uint256"
        }
      ],
      "name": "setPin",
      "outputs": [],
      "stateMutability": "nonpayable",
      "type": "function"
    },
    {
      "inputs": [
        {
          "internalType": "address",
          "name": "",
          "type": "address"
        }
      ],
      "name": "users",
      "outputs": [
        {
          "internalType": "address",
          "name": "id",
          "type": "address"
        },
        {
          "internalType": "uint256",
          "name": "transactionCount",
          "type": "uint256"
        },
        {
          "internalType": "uint256",
          "name": "pin",
          "type": "uint256"
        }
      ],
      "stateMutability": "view",
      "type": "function"
    }
  ],
  "bytecode": "0x608060405234801561001057600080fd5b50611674806100206000396000f3fe608060405234801561001057600080fd5b50600436106100885760003560e01c8063baac748c1161005b578063baac748c1461012b578063be9863a314610147578063c444816414610163578063ef1d6ddd1461017f57610088565b806327506f531461008d5780632e7700f0146100ab578063a303be8f146100c9578063a87430ba146100f9575b600080fd5b61009561019d565b6040516100a291906112d0565b60405180910390f35b6100b36104b2565b6040516100c091906112f2565b60405180910390f35b6100e360048036038101906100de9190610dde565b6104fc565b6040516100f091906112f2565b60405180910390f35b610113600480360381019061010e9190610dde565b610548565b60405161012293929190611277565b60405180910390f35b61014560048036038101906101409190610f1a565b610592565b005b610161600480360381019061015c9190610e5b565b6105dc565b005b61017d60048036038101906101789190610e07565b610a07565b005b610187610b0d565b60405161019491906112ae565b60405180910390f35b6060600160003373ffffffffffffffffffffffffffffffffffffffff1673ffffffffffffffffffffffffffffffffffffffff168152602001908152602001600020600201805480602002602001604051908101604052809291908181526020016000905b828210156104a957838290600052602060002090600702016040518060e00160405290816000820160009054906101000a900473ffffffffffffffffffffffffffffffffffffffff1673ffffffffffffffffffffffffffffffffffffffff1673ffffffffffffffffffffffffffffffffffffffff1681526020016001820160009054906101000a900473ffffffffffffffffffffffffffffffffffffffff1673ffffffffffffffffffffffffffffffffffffffff1673ffffffffffffffffffffffffffffffffffffffff168152602001600282015481526020016003820180546102ea90611529565b80601f016020809104026020016040519081016040528092919081815260200182805461031690611529565b80156103635780601f1061033857610100808354040283529160200191610363565b820191906000526020600020905b81548152906001019060200180831161034657829003601f168201915b505050505081526020016004820154815260200160058201805461038690611529565b80601f01602080910402602001604051908101604052809291908181526020018280546103b290611529565b80156103ff5780601f106103d4576101008083540402835291602001916103ff565b820191906000526020600020905b8154815290600101906020018083116103e257829003601f168201915b5050505050815260200160068201805461041890611529565b80601f016020809104026020016040519081016040528092919081815260200182805461044490611529565b80156104915780601f1061046657610100808354040283529160200191610491565b820191906000526020600020905b81548152906001019060200180831161047457829003601f168201915b50505050508152505081526020019060010190610201565b50505050905090565b6000600160003373ffffffffffffffffffffffffffffffffffffffff1673ffffffffffffffffffffffffffffffffffffffff16815260200190815260200160002060010154905090565b6000600160008373ffffffffffffffffffffffffffffffffffffffff1673ffffffffffffffffffffffffffffffffffffffff168152602001908152602001600020600401549050919050565b60016020528060005260406000206000915090508060000160009054906101000a900473ffffffffffffffffffffffffffffffffffffffff16908060010154908060040154905083565b80600160003373ffffffffffffffffffffffffffffffffffffffff1673ffffffffffffffffffffffffffffffffffffffff1681526020019081526020016000206004018190555050565b60018060003373ffffffffffffffffffffffffffffffffffffffff1673ffffffffffffffffffffffffffffffffffffffff168152602001908152602001600020600101600082825461062e919061140d565b92505081905550600160003373ffffffffffffffffffffffffffffffffffffffff1673ffffffffffffffffffffffffffffffffffffffff1681526020019081526020016000206002016040518060e001604052803373ffffffffffffffffffffffffffffffffffffffff1681526020018773ffffffffffffffffffffffffffffffffffffffff16815260200186815260200185815260200142815260200184815260200183815250908060018154018082558091505060019003906000526020600020906007020160009091909190915060008201518160000160006101000a81548173ffffffffffffffffffffffffffffffffffffffff021916908373ffffffffffffffffffffffffffffffffffffffff16021790555060208201518160010160006101000a81548173ffffffffffffffffffffffffffffffffffffffff021916908373ffffffffffffffffffffffffffffffffffffffff1602179055506040820151816002015560608201518160030190805190602001906107b3929190610c94565b506080820151816004015560a08201518160050190805190602001906107da929190610c94565b5060c08201518160060190805190602001906107f7929190610c94565b505050600160008673ffffffffffffffffffffffffffffffffffffffff1673ffffffffffffffffffffffffffffffffffffffff1681526020019081526020016000206002016040518060e001604052803373ffffffffffffffffffffffffffffffffffffffff1681526020018773ffffffffffffffffffffffffffffffffffffffff16815260200186815260200185815260200142815260200184815260200183815250908060018154018082558091505060019003906000526020600020906007020160009091909190915060008201518160000160006101000a81548173ffffffffffffffffffffffffffffffffffffffff021916908373ffffffffffffffffffffffffffffffffffffffff16021790555060208201518160010160006101000a81548173ffffffffffffffffffffffffffffffffffffffff021916908373ffffffffffffffffffffffffffffffffffffffff160217905550604082015181600201556060820151816003019080519060200190610978929190610c94565b506080820151816004015560a082015181600501908051906020019061099f929190610c94565b5060c08201518160060190805190602001906109bc929190610c94565b5050507f416cfa4330a4565f45c2fd2dd4826a83a37443aba2ce6f79477c7355afac35fa3386868642876040516109f896959493929190611208565b60405180910390a15050505050565b600060405180604001604052808381526020018473ffffffffffffffffffffffffffffffffffffffff168152509050600160003373ffffffffffffffffffffffffffffffffffffffff1673ffffffffffffffffffffffffffffffffffffffff1681526020019081526020016000206003018190806001815401808255809150506001900390600052602060002090600202016000909190919091506000820151816000019080519060200190610abe929190610c94565b5060208201518160010160006101000a81548173ffffffffffffffffffffffffffffffffffffffff021916908373ffffffffffffffffffffffffffffffffffffffff1602179055505050505050565b6060600160003373ffffffffffffffffffffffffffffffffffffffff1673ffffffffffffffffffffffffffffffffffffffff168152602001908152602001600020600301805480602002602001604051908101604052809291908181526020016000905b82821015610c8b5783829060005260206000209060020201604051806040016040529081600082018054610ba490611529565b80601f0160208091040260200160405190810160405280929190818152602001828054610bd090611529565b8015610c1d5780601f10610bf257610100808354040283529160200191610c1d565b820191906000526020600020905b815481529060010190602001808311610c0057829003601f168201915b505050505081526020016001820160009054906101000a900473ffffffffffffffffffffffffffffffffffffffff1673ffffffffffffffffffffffffffffffffffffffff1673ffffffffffffffffffffffffffffffffffffffff168152505081526020019060010190610b71565b50505050905090565b828054610ca090611529565b90600052602060002090601f016020900481019282610cc25760008555610d09565b82601f10610cdb57805160ff1916838001178555610d09565b82800160010185558215610d09579182015b82811115610d08578251825591602001919060010190610ced565b5b509050610d169190610d1a565b5090565b5b80821115610d33576000816000905550600101610d1b565b5090565b6000610d4a610d458461133e565b61130d565b905082815260208101848484011115610d6257600080fd5b610d6d8482856114e7565b509392505050565b600081359050610d84816115f9565b92915050565b600081359050610d9981611610565b92915050565b600082601f830112610db057600080fd5b8135610dc0848260208601610d37565b91505092915050565b600081359050610dd881611627565b92915050565b600060208284031215610df057600080fd5b6000610dfe84828501610d75565b91505092915050565b60008060408385031215610e1a57600080fd5b6000610e2885828601610d8a565b925050602083013567ffffffffffffffff811115610e4557600080fd5b610e5185828601610d9f565b9150509250929050565b600080600080600060a08688031215610e7357600080fd5b6000610e8188828901610d8a565b9550506020610e9288828901610dc9565b945050604086013567ffffffffffffffff811115610eaf57600080fd5b610ebb88828901610d9f565b935050606086013567ffffffffffffffff811115610ed857600080fd5b610ee488828901610d9f565b925050608086013567ffffffffffffffff811115610f0157600080fd5b610f0d88828901610d9f565b9150509295509295909350565b600060208284031215610f2c57600080fd5b6000610f3a84828501610dc9565b91505092915050565b6000610f4f8383611103565b905092915050565b6000610f638383611140565b905092915050565b610f74816114b1565b82525050565b610f8381611475565b82525050565b610f9281611463565b82525050565b610fa181611463565b82525050565b6000610fb28261138e565b610fbc81856113c9565b935083602082028501610fce8561136e565b8060005b8581101561100a5784840389528151610feb8582610f43565b9450610ff6836113af565b925060208a01995050600181019050610fd2565b50829750879550505050505092915050565b600061102782611399565b61103181856113da565b9350836020820285016110438561137e565b8060005b8581101561107f57848403895281516110608582610f57565b945061106b836113bc565b925060208a01995050600181019050611047565b50829750879550505050505092915050565b600061109c826113a4565b6110a681856113eb565b93506110b68185602086016114f6565b6110bf816115e8565b840191505092915050565b60006110d5826113a4565b6110df81856113fc565b93506110ef8185602086016114f6565b6110f8816115e8565b840191505092915050565b600060408301600083015184820360008601526111208282611091565b91505060208301516111356020860182610f7a565b508091505092915050565b600060e0830160008301516111586000860182610f89565b50602083015161116b6020860182610f89565b50604083015161117e60408601826111ea565b50606083015184820360608601526111968282611091565b91505060808301516111ab60808601826111ea565b5060a083015184820360a08601526111c38282611091565b91505060c083015184820360c08601526111dd8282611091565b9150508091505092915050565b6111f3816114a7565b82525050565b611202816114a7565b82525050565b600060c08201905061121d6000830189610f98565b61122a6020830188610f6b565b61123760408301876111f9565b818103606083015261124981866110ca565b905061125860808301856111f9565b81810360a083015261126a81846110ca565b9050979650505050505050565b600060608201905061128c6000830186610f98565b61129960208301856111f9565b6112a660408301846111f9565b949350505050565b600060208201905081810360008301526112c88184610fa7565b905092915050565b600060208201905081810360008301526112ea818461101c565b905092915050565b600060208201905061130760008301846111f9565b92915050565b6000604051905081810181811067ffffffffffffffff82111715611334576113336115b9565b5b8060405250919050565b600067ffffffffffffffff821115611359576113586115b9565b5b601f19601f8301169050602081019050919050565b6000819050602082019050919050565b6000819050602082019050919050565b600081519050919050565b600081519050919050565b600081519050919050565b6000602082019050919050565b6000602082019050919050565b600082825260208201905092915050565b600082825260208201905092915050565b600082825260208201905092915050565b600082825260208201905092915050565b6000611418826114a7565b9150611423836114a7565b9250827fffffffffffffffffffffffffffffffffffffffffffffffffffffffffffffffff038211156114585761145761155b565b5b828201905092915050565b600061146e82611487565b9050919050565b600061148082611487565b9050919050565b600073ffffffffffffffffffffffffffffffffffffffff82169050919050565b6000819050919050565b60006114bc826114c3565b9050919050565b60006114ce826114d5565b9050919050565b60006114e082611487565b9050919050565b82818337600083830152505050565b60005b838110156115145780820151818401526020810190506114f9565b83811115611523576000848401525b50505050565b6000600282049050600182168061154157607f821691505b602082108114156115555761155461158a565b5b50919050565b7f4e487b7100000000000000000000000000000000000000000000000000000000600052601160045260246000fd5b7f4e487b7100000000000000000000000000000000000000000000000000000000600052602260045260246000fd5b7f4e487b7100000000000000000000000000000000000000000000000000000000600052604160045260246000fd5b6000601f19601f8301169050919050565b61160281611463565b811461160d57600080fd5b50565b61161981611475565b811461162457600080fd5b50565b611630816114a7565b811461163b57600080fd5b5056fea2646970667358221220a552c3a895296f730ebcb7afe2e34e5e56b26d726ee707e9efcc73057162c7d464736f6c63430008000033",
  "linkReferences": {},
  "deployedLinkReferences": {}
}